:020000040800F2
:1000000070180020C9010008192B000829280008D1
:10001000152B0008FD030008F14300080000000054
:10002000000000000000000000000000313F000858
:100030006504000800000000892B0008893F0008C3
:10004000E3010008E3010008E3010008E301000800
:10005000E3010008E3010008E3010008E3010008F0
:10006000E3010008E3010008E3010008E3010008E0
:10007000E301000801040008E3010008E3010008AF
:10008000E3010008E3010008E3010008E3010008C0
:10009000E3010008E3010008E3010008E3010008B0
:1000A000E3010008E3010008E3010008E3010008A0
:1000B000E3010008E3010008E3010008E301000890
:1000C000E3010008E3010008E3010008892C0008AF
:1000D000E3010008E3010008E3010008E301000870
:1000E000E3010008E3010008E3010008E301000860
:1000F000E301000800F002F800F03CF80AA090E8E4
:10010000000C82448344AAF10107DA4501D100F0D2
:1001100031F8AFF2090EBAE80F0013F0010F18BF63
:10012000FB1A43F001031847645F0000845F00007E
:10013000103A24BF78C878C1FAD8520724BF30C813
:1001400030C144BF04680C607047000000230024E5
:1001500000250026103A28BF78C1FBD8520728BFD7
:1001600030C148BF0B6070471FB500F0DAF81FBD03
:1001700010B510BD00F008F91146FFF7F5FF04F0C7
:100180005DFA00F026F903B4FFF7F2FF03BC00F0BC
:100190002DF900000B49D1F800C04A685CF8043B17
:1001A0001068184442F8040B8C4528BFA1F1DC0C00
:1001B0008A4228BFA1F1DC02C1F800C04A6020F0E9
:1001C0000040704714010020094880470948004753
:1001D000FEE7FEE7FEE7FEE7FEE7FEE7FEE7FEE7F7
:1001E000FEE7FEE704480549054A064B7047000054
:1001F0000D400008F5000008701200207018002063
:10020000701400207014002053EA020C00F0698082
:100210002DE9F04B4FF00006002B1FBFB3FA83F51A
:1002200003FA05F424FA05F65E4012BF1643B2FA4B
:1002300082F502FA05F4C5F120051EBF22FA05FC7D
:1002400044EA0C04203556EA044C4FEA144418BF23
:10025000641C4FF000084FF00009904271EB030C52
:1002600039D3002919BFB1FA81F701FA07F6B0FABC
:1002700080F700FA07F6C7F120071EBF20FA07FC37
:1002800046EA0C062037B6FBF4FCA7EB0507103F47
:1002900007F01F0BCBF120062CFA06F60CFA0BFB2D
:1002A00044BFB3460026202FA4BF5E464FF0000B8C
:1002B0005BEA060C08BF4FF0010B19EB0B0948EB8A
:1002C0000608ABFB027C06FB02CC0BFB03CCC01B7D
:1002D00071EB0C01C1E70B46024641464846BDE8BA
:1002E000F08B13B5084318BF4FF0FF300146AFF352
:1002F0000080BDE81C4070470B4910B5A1F17C029D
:100300000A4CC2E93712372106E000EB104342F8ED
:100310002130074B00FB03400B1EA1F10101F4DC6F
:1003200010BD0120E8E70000B4000020E119D66606
:10033000CD0D01004FF0000200B5134694469646DD
:10034000203922BFA0E80C50A0E80C50B1F12001E8
:10035000BFF4F7AF090728BFA0E80C5048BF0CC096
:100360005DF804EB890028BF40F8042B08BF7047F4
:1003700048BF20F8022B11F0804F18BF00F8012B66
:100380007047704770477047754600F02BF8AE46CF
:1003900005006946534620F00700854618B020B591
:1003A000FFF720FFBDE820404FF000064FF00007A8
:1003B0004FF000084FF0000BAC46ACE8C009ACE8C9
:1003C000C009ACE8C009ACE8C00921F007018D46BE
:1003D000704710B50446AFF300802046BDE81040DA
:1003E000FFF7D1BE004870471C01002001491820CA
:1003F000ABBEFEE72600020070470000FFE7FEE705
:1004000080B541F28C10C2F2000000F073F880BD9C
:1004100084B003900291019200930398C16B006C29
:1004200000F01C0201209040486000980399096880
:10043000486003984068102809D1FFE701980399A4
:1004400009688860029803990968C86008E0029802
:10045000039909688860019803990968C860FFE7F3
:1004600004B070477047000081B0EFF3108072B69F
:100470000090FFE7FEE7000080B582B00190002009
:100480008DF80300019890F82100022807D0FFE7BB
:1004900001990420886301208DF8030026E001986B
:1004A0000168086820F00E0008600198016808687B
:1004B00020F0010008600198C26B006C00F01C0184
:1004C000012000FA01F15160019981F82100FFE754
:1004D0000199002081F82000FFE70198406B20B1CE
:1004E000FFE70198416B8847FFE7FFE79DF80300AE
:1004F00002B080BD80B584B003900398C06B0068E3
:100500000290039800680068019002980399096CB2
:1005100001F01C01C8404007002825D5FFE79DF8E1
:100520000400400700281FD5FFE703980068006813
:100530008006002807D4FFE703980168086820F0C8
:1005400004000860FFE70398C16B006C00F01C0218
:100550000420904048600398C06A20B1FFE70398E8
:10056000C16A8847FFE76EE002980399096C01F0C1
:100570001C01C840800700282FD5FFE79DF8040024
:100580008007002829D5FFE70398006800688006E7
:1005900000280BD4FFE703980168086820F00A00E0
:1005A00008600399012081F82100FFE70398C16BDF
:1005B000006C00F01C02022090404860FFE70399A5
:1005C000002081F82000FFE70398806A20B1FFE750
:1005D0000398816A8847FFE734E002980399096C21
:1005E00001F01C01C8400007002829D5FFE79DF84D
:1005F00004000007002823D5FFE703980168086876
:1006000020F00E0008600398C26B006C00F01C0123
:10061000012000FA01F1516003998863039981F880
:100620002100FFE70399002081F82000FFE70398ED
:10063000006B20B1FFE70398016B8847FFE700E0FC
:10064000FFE7FFE7FFE704B080BD000083B0019043
:10065000019820B9FFE701208DF80B0048E00199CF
:10066000086849F6F872CBF6FD7210444CF6CD429C
:10067000CCF6CC42A0FB02026FF0030000EA92002D
:100680000864019946F20000C4F20200C8630199AF
:10069000022081F82100019800680068009000980D
:1006A00047F6F0718843009001994868D1F808C076
:1006B000CB680A6940EA0C00184310434A691043AA
:1006C0008A691043C9690143009808430090009863
:1006D000019909680860019900208863019A012145
:1006E00082F82110019981F820008DF80B00FFE7B6
:1006F0009DF80B0003B0704780B586B0049003915D
:100700000292019300208DF80300FFE7049890F80F
:100710002000012804D1FFE702208DF817004CE0EB
:100720000499012081F82000FFE7FFE7049890F882
:100730002100012832D1FFE70499022081F821002D
:1007400004990020886304980168086820F001007B
:10075000086004980399029A019BFFF759FE0498D8
:10076000C06A38B1FFE704980168086840F00E00DD
:1007700008600CE004980168086820F00400086034
:1007800004980168086840F00A000860FFE70498D0
:100790000168086840F00100086009E0FFE704997B
:1007A000002081F82000FFE702208DF80300FFE71A
:1007B0009DF803008DF81700FFE79DF8170006B0BD
:1007C00080BD000080B584B0039000F0F7F902907E
:1007D000039801900198013048B1FFE740F23000E2
:1007E000C2F200000168019808440190FFE7FFE7AA
:1007F00000F0E4F90299401A0199884201D2FFE71A
:10080000F6E704B080BD00008AB00990089100208E
:10081000079006900590FFE7089800680799C84080
:10082000002800F09981FFE708980068079A0121E5
:100830009140084006900698002800F08981FFE763
:100840000898406800F00300012807D0FFE70898E7
:10085000406800F0030002282FD1FFE70998806864
:10086000059007984100032000FA01F1059888439C
:1008700005900898C0680799490000FA01F10598A9
:100880000843059005980999886009984068059083
:100890000799012000FA01F105988843059008980E
:1008A0004068C0F30010079900FA01F10598084369
:1008B0000590059809994860FFE70898406800F09E
:1008C0000300032818D0FFE70998C068059007982F
:1008D0004100032000FA01F105988843059008982B
:1008E00080680799490000FA01F1059808430590CE
:1008F00005980999C860FFE70898406800F0030070
:10090000022826D1FFE7099807996FF0030202EA4F
:1009100051010844006A0590079800F00700810023
:100920000F2000FA01F105988843059008980069A6
:10093000079901F00701890000FA01F105980843C1
:10094000059005980999079B02EA53021144086231
:10095000FFE709980068059007984100032000FA16
:1009600001F10598884305900898406800F003005D
:100970000799490000FA01F1059808430590059888
:1009800009990860089880798007002800F0DF80C6
:10099000FFE7FFE743F62000C4F20200016841F0E0
:1009A00001010160006800F0010004900498FFE775
:1009B000079820F003000821C4F201014058059077
:1009C000079800F0030081000F2000FA01F105985C
:1009D0008843059009980021C4F20201884203D19E
:1009E000FFE70020039034E0099840F20041C4F290
:1009F0000201884203D1FFE70120029026E0099816
:100A000040F60001C4F20201884203D1FFE7022050
:100A1000019018E0099840F60041C4F202018842B2
:100A200003D1FFE7032000900AE0099941F2000298
:100A3000C4F202020520914208BF04200090FFE7A3
:100A400000980190FFE701980290FFE70298039059
:100A5000FFE70398079901F00301890000FA01F10B
:100A60000598084305900598079921F0030108228D
:100A7000C4F20102885040F20040C4F20100006854
:100A80000590069905988843059008988079C007D5
:100A900028B1FFE70699059808430590FFE70598F8
:100AA00040F20041C4F20101086040F20440C4F287
:100AB00001000068059006990598884305900898FC
:100AC00080798007002805D5FFE706990598084337
:100AD0000590FFE7059840F20441C4F20101086067
:100AE00040F20840C4F2010000680590069905989C
:100AF0008843059008988079C006002805D5FFE74F
:100B00000699059808430590FFE7059840F20841CB
:100B1000C4F20101086040F20C40C4F20100006818
:100B20000590069905988843059008988079800675
:100B3000002805D5FFE70699059808430590FFE7CB
:100B4000059840F20C41C4F201010860FFE7FFE79D
:100B50000798013007905FE60AB0704782B00190B5
:100B6000ADF8021001980069BDF80210084204D0E7
:100B7000FFE701208DF8010003E000208DF801005F
:100B8000FFE79DF8010002B07047000082B00190BD
:100B9000ADF802108DF801209DF8010028B1FFE7A3
:100BA000BDF802000199886105E0BDF8020000046B
:100BB00001998861FFE702B07047000041F26C20A4
:100BC000C2F200000068704740F23000C2F200003C
:100BD000026841F26C21C2F200010868104408600A
:100BE0007047000080B582B0002000908DF80700AB
:100BF000032000F0A9F8009800F00EF820B1FFE7FC
:100C000001208DF8070002E000F04AF8FFE79DF8A8
:100C1000070002B080BD000080B582B001900020C6
:100C20008DF8030040F23000C2F20000006878B393
:100C3000FFE740F21C00C2F20000006840F2300101
:100C4000C2F200010A684FF47A71B1FBF2F1B0FB15
:100C5000F1F001F0A9FAB0B9FFE701980F280DD81B
:100C6000FFE701994FF0FF30002200F053F80198A0
:100C700040F23401C2F20001086003E001208DF867
:100C80000300FFE703E001208DF80300FFE703E026
:100C900001208DF80300FFE79DF8030002B080BD3E
:100CA00083B0FFE743F62400C4F20200016841F07C
:100CB00000410160006800F0004002900298FFE7E8
:100CC000FFE743F62000C4F20200016841F0010191
:100CD0000160006800F0010001900198FFE7FFE764
:100CE00043F62400C4F20200016841F08051016023
:100CF000006800F0805000900098FFE703B0704754
:100D000080B582B08DF807009DF9070003F072FBF3
:100D100002B080BD80B586B08DF8170004910392B3
:100D20000020029003F07EFB02909DF917000190D5
:100D300002980499039A01F0F1FE0146019803F02C
:100D400079FB06B080BD000080B582B001900198AB
:100D500003F092FB02B080BD80B586B00490039191
:100D6000049820B9FFE701208DF8170097E1039858
:100D700043F60041C4F20201096801F00101884212
:100D800029D9FFE7FFE70398012809D1FFE743F6D8
:100D90000041C4F20201086840F004000860FFE767
:100DA00043F60041C4F20201086820F00100039AF2
:100DB00010430860FFE743F60040C4F202000068F9
:100DC00000F001000399884204D0FFE701208DF86C
:100DD000170064E1FFE704980078800700280CD52D
:100DE000FFE743F60801C4F20201086820F0F000B2
:100DF000049A926810430860FFE704980078C007DF
:100E0000002800F0D180FFE70498406802280ED146
:100E1000FFE743F60000C4F20200006880030028E8
:100E200004D4FFE701208DF8170038E135E004987D
:100E3000406803280ED1FFE743F60000C4F2020029
:100E400000688001002804D4FFE701208DF8170016
:100E500025E121E00498406801280ED1FFE743F620
:100E60000000C4F2020000688007002804D4FFE7F5
:100E700001208DF8170012E10DE043F60000C4F2E6
:100E8000020000688005002804D4FFE701208DF8E7
:100E9000170004E1FFE7FFE7FFE743F60801C4F2AC
:100EA0000201086820F00300049A526810430860A9
:100EB000FFF784FE02900498406802281AD1FFE7E9
:100EC000FFE743F60800C4F20200006800F00C00DF
:100ED00008280ED0FFE7FFF771FE0299401A41F291
:100EE0008931884204D3FFE703208DF81700D6E04C
:100EF000E7E758E00498406803281AD1FFE7FFE7C6
:100F000043F60800C4F20200006800F00C000C2850
:100F10000ED0FFE7FFF752FE0299401A41F28931E5
:100F2000884204D3FFE703208DF81700B7E0E7E716
:100F300038E00498406801281AD1FFE7FFE743F63C
:100F40000800C4F20200006800F00C0004280ED073
:100F5000FFE7FFF733FE0299401A41F289318842D8
:100F600004D3FFE703208DF8170098E0E7E718E0C7
:100F7000FFE743F60800C4F20200006810F00C0F0F
:100F80000ED0FFE7FFF71AFE0299401A41F28931AD
:100F9000884204D3FFE703208DF817007FE0E8E7DD
:100FA000FFE7FFE7FFE7FFE7039843F60041C4F2DE
:100FB0000201096801F00101884229D2FFE7FFE739
:100FC0000398012809D1FFE743F60041C4F202016A
:100FD000086840F004000860FFE743F60041C4F2EF
:100FE0000201086820F00100039A10430860FFE73F
:100FF00043F60040C4F20200006800F001000399CB
:10100000884204D0FFE701208DF8170047E0FFE792
:1010100004980078400700280CD5FFE743F6080144
:10102000C4F20201086820F4E060049AD268104318
:101030000860FFE704980078000700280DD5FFE757
:1010400043F60801C4F20201086820F46050049AD3
:10105000126940EAC2000860FFE700F025F843F695
:101060000801C4F202010968C9B20A0944F69441B0
:10107000C0F60001895CC84040F21C01C2F20001C8
:10108000086040F23400C2F200000068FFF7C4FDBF
:101090008DF807009DF807008DF81700FFE79DF811
:1010A000170006B080BD000080B588B043F6080088
:1010B000C4F2020000680790079800F00C00014697
:1010C00001910C284CD80199DFE801F0494A4A4ABD
:1010D000074A4A4A0D4A4A4A130042F20040C0F207
:1010E000F40002904BE041F20020C0F27A0002903E
:1010F00045E00798C0F3834145F6F070C0F6000064
:10110000405C0690079800F44001012000EB9150EC
:10111000059043F60800C4F202000068C0030028EE
:101120000DD5FFE7069841F20021C0F27A01A0FB3D
:101130000101059A0023FFF767F804900CE0069878
:1011400042F20041C0F2F401A0FB0101059A002324
:10115000FFF75AF80490FFE7049802900FE0FFE7CA
:1011600043F60400C4F20200006880B2400B039012
:101170000398411C01208840C0030290FFE70298B9
:1011800008B080BD80B588B00690069820B9FFE70A
:1011900001208DF81F00EFE343F60800C4F20200BF
:1011A000016801F00C010391006800F480300290A6
:1011B00006980078C007002800F09C80FFE703989D
:1011C000082809D0FFE703980C2817D1FFE70298F9
:1011D000B0F5803F12D1FFE743F60000C4F20200F1
:1011E00000688003002808D5FFE70698406820B90A
:1011F000FFE701208DF81F00BEE37AE0FFE70698C5
:101200004068012809D1FFE743F60001C4F202015A
:10121000086840F48030086031E00698406868B99A
:10122000FFE743F60001C4F20201086820F48030B1
:101230000860086820F4802008601FE00698406875
:1012400005280DD1FFE743F60001C4F2020108684A
:1012500040F480200860086840F4803008600CE0AA
:1012600043F60001C4F20201086820F480300860EF
:10127000086820F480200860FFE7FFE7FFE7FFE74A
:1012800006984068D0B1FFE7FFF798FC0590FFE7AC
:1012900043F60000C4F202000068800300280CD46A
:1012A000FFE7FFF78BFC0599401A652804D3FFE799
:1012B00003208DF81F005FE3EAE719E0FFF77EFCEB
:1012C0000590FFE743F60000C4F2020000688003C7
:1012D00000280CD5FFE7FFF771FC0599401A652837
:1012E00004D3FFE703208DF81F0045E3EAE7FFE79B
:1012F000FFE7FFE706980078800700287BD5FFE727
:101300000398042807D0FFE703980C2823D1FFE7B0
:10131000029800BBFFE743F60000C4F20200006839
:101320008007002809D5FFE70698C068012804D087
:10133000FFE701208DF81F001EE343F60401C4F20D
:101340000201086820F4F850069A126940EA022067
:101350000860FFE74EE00698C06858B3FFE7002139
:10136000C4F2472101200860FFF728FC0590FFE741
:1013700043F60000C4F202000068800700280CD485
:10138000FFE7FFF71BFC0599401A032804D3FFE78A
:1013900003208DF81F00EFE2EAE743F60401C4F2F0
:1013A0000201086820F4F850069A126940EA022007
:1013B00008601EE00021C4F2472100200860FFF70A
:1013C000FDFB0590FFE743F60000C4F20200006851
:1013D000800700280CD5FFE7FFF7F0FB0599401ABE
:1013E000032804D3FFE703208DF81F00C4E2EAE7D7
:1013F000FFE7FFE7FFE706980078C006002840F106
:10140000E380FFE70398002840F08780FFE743F67A
:101410000000C4F2020000688005002808D5FFE73C
:101420000698806920B9FFE701208DF81F00A3E22C
:101430000698006A43F60401C4F20201096801F447
:10144000604188421ED9FFE70698006A01F09EFBC2
:1014500020B1FFE701208DF81F008DE243F6040163
:10146000C4F20201086820F46040069A126A104330
:101470000860086820F07F40069AD26940EA02605E
:1014800008601DE043F60401C4F20201086820F47C
:101490006040069A126A10430860086820F07F4096
:1014A000069AD26940EA026008600698006A01F074
:1014B0006DFB20B1FFE701208DF81F005CE2FFE724
:1014C0000698016A012000EB51318840C00343F6C1
:1014D0000801C4F202010968C9B20A0944F694413C
:1014E000C0F60001895CC84040F21C01C2F2000154
:1014F000086040F23400C2F200000068FFF78CFB85
:101500008DF813009DF8130028B1FFE79DF8130034
:101510008DF81F0030E2FFE755E00698806990B330
:10152000FFE72021C4F2472101200860FFF746FBB6
:101530000590FFE743F60000C4F202000068800552
:1015400000280CD4FFE7FFF739FB0599401A032860
:1015500004D3FFE703208DF81F000DE2EAE743F60E
:101560000401C4F20201086820F46040069A126A7D
:1015700010430860086820F07F40069AD26940EA6C
:10158000026008601EE02021C4F2472100200860AC
:10159000FFF714FB0590FFE743F60000C4F20200DA
:1015A0000068800500280CD5FFE7FFF707FB0599C9
:1015B000401A032804D3FFE703208DF81F00DBE166
:1015C000EAE7FFE7FFE7FFE7069800780007002853
:1015D00045D5FFE70698406900B3FFE740F2806118
:1015E000C4F2472101200860FFF7E8FA0590FFE701
:1015F00043F63400C4F202000068800700280CD4CF
:10160000FFE7FFF7DBFA0599401A032804D3FFE749
:1016100003208DF81F00AFE1EAE71FE040F2806190
:10162000C4F2472100200860FFF7C8FA0590FFE7E1
:1016300043F63400C4F202000068800700280CD58D
:10164000FFE7FFF7BBFA0599401A032804D3FFE729
:1016500003208DF81F008FE1EAE7FFE7FFE7069818
:1016600000784007002840F1D880FFE700208DF87F
:10167000070043F62400C4F202000068C0000028FE
:1016800013D4FFE7FFE743F62400C4F20200016829
:1016900041F080510160006800F080500090009897
:1016A000FFE701208DF80700FFE747F20000C4F2D2
:1016B00000000068C005002822D4FFE747F20001BF
:1016C000C4F20001086840F480700860FFF776FA01
:1016D0000590FFE747F20000C4F200000068C00573
:1016E00000280CD4FFE7FFF769FA0599401A65282E
:1016F00004D3FFE703208DF81F003DE1EAE7FFE791
:10170000FFE706988068012809D1FFE743F6340116
:10171000C4F20201086840F48070086031E0069865
:10172000806868B9FFE743F63401C4F20201086833
:1017300020F480700860086820F4806008601FE072
:101740000698806805280DD1FFE743F63401C4F2FE
:101750000201086840F480600860086840F4807006
:1017600008600CE043F63401C4F20201086820F47A
:1017700080700860086820F480600860FFE7FFE779
:10178000FFE7FFE706988068E0B1FFE7FFF716FA8A
:101790000590FFE743F63400C4F2020000688005BC
:1017A00000280ED4FFE7FFF709FA0599401A41F225
:1017B0008931884204D3FFE703208DF81F00DBE066
:1017C000E8E71BE0FFF7FAF90590FFE743F634007E
:1017D000C4F202000068800500280ED5FFE7FFF77D
:1017E000EDF90599401A41F28931884204D3FFE7A7
:1017F00003208DF81F00BFE0E8E7FFE79DF8070032
:10180000012809D1FFE743F62401C4F20201086868
:1018100020F080500860FFE7FFE70698406A002844
:1018200000F0A680FFE703980C2873D0FFE7069826
:10183000406A02284ED1FFE76021C4F24721002010
:101840000860FFF7BBF90590FFE743F60000C4F21C
:1018500002000068800100280CD5FFE7FFF7AEF911
:101860000599401A032804D3FFE703208DF81F00D1
:1018700082E0EAE743F60801C4F20201086820F4B6
:101880007D00069B9A6AD3F82CC01B6B42EA0C02BF
:101890001A43104308606021C4F247210120086008
:1018A000FFF78CF90590FFE743F60000C4F2020051
:1018B0000068800100280CD4FFE7FFF77FF9059945
:1018C000401A032804D3FFE703208DF81F0053E0DC
:1018D000EAE71EE06021C4F2472100200860FFF71C
:1018E0006DF90590FFE743F60000C4F202000068BE
:1018F000800100280CD5FFE7FFF760F90599401A31
:10190000032804D3FFE703208DF81F0034E0EAE743
:10191000FFE72CE00698406A012804D1FFE7012088
:101920008DF81F0028E043F60800C4F202000068AA
:101930000290029800F480300699896A884210D19A
:10194000FFE7029800F470100699C96A884208D12E
:10195000FFE7029800F440000699096B884204D022
:10196000FFE701208DF81F0006E0FFE7FFE7FFE734
:1019700000208DF81F00FFE79DF81F0008B080BD14
:1019800080B582B0019000BF0198006843F2000169
:10199000C4F20101884209D1FFE740F22C01C2F2F2
:1019A00000010120087002F09BFAFFE702B080BD41
:1019B00080B586B005900598006840680490059849
:1019C0000068806803909DF80C0000F04001002042
:1019D000B0EB911F11D1FFE70398C00768B1FFE793
:1019E0009DF8100000F040010020B0EB911F04D0E2
:1019F000FFE70598016C8847D6E09DF80C0000F0E1
:101A000002010020B0EB510F0BD0FFE79DF8101042
:101A10000020B0EBD11F04D0FFE70598416C884748
:101A2000C2E09DF80C0000F020010020B0EB511F37
:101A30000AD1FFE79DF80C0000F040010020B0EB58
:101A4000911F00F0B180FFE79DF8100000F0200129
:101A50000020B0EB511F00F0A780FFE79DF80C00BD
:101A600000F040010020B0EB911F28D0FFE705985F
:101A700090F85100032813D0FFE70599486D40F016
:101A800004004865FFE70020029005980068C068E0
:101A9000029005980068806802900298FFE70DE0C8
:101AA000FFE70020019005980068C0680190059844
:101AB0000068806801900198FFE775E0FFE79DF8F6
:101AC0000C0000F020010020B0EB511F15D0FFE703
:101AD0000599486D40F001004865FFE7002000903F
:101AE000059800688068009005980168086820F0F3
:101AF000400008600098FFE7FFE70598406D002868
:101B000051D0FFE705980168486820F0E000486080
:101B10000599012081F85100049800F00200022884
:101B200005D0FFE79DF81000C007B8B3FFE70598A0
:101B30000168486820F0030048600598C06CA0B1B7
:101B4000FFE70598C16C42F69940C0F60000486373
:101B50000598C06CFEF790FC30B1FFE70599486D21
:101B600040F040004865FFE7FFE70598806CA0B1B2
:101B7000FFE70598816C42F69940C0F60000486383
:101B80000598806CFEF778FC30B1FFE70599486D49
:101B900040F040004865FFE7FFE703E00598FFF7E6
:101BA000EFFEFFE7FFE7FFE706B080BD80B584B03A
:101BB0000290029820B9FFE701208DF80F0067E03E
:101BC0000298406A60B9FFE702984068B0F5827FEA
:101BD00001D1FFE703E002990020C861FFE705E0BB
:101BE00002990020086102994861FFE702990020EC
:101BF0008862029890F8510040B9FFE702990020EE
:101C000081F85000029800F047F8FFE7029902209F
:101C100081F8510002980168086820F040000860CF
:101C2000029A019211685068D2F808C0D36800F493
:101C300082700CF4044C604403F40063184413698C
:101C400003F002031844536903F001031844936935
:101C500003F400731844D36903F038031844136A7B
:101C600003F080031843926A02F4005210430860A4
:101C70000299488B00F0040009684860029900202E
:101C80004865029A012182F851108DF80F00FFE794
:101C90009DF80F0004B080BD80B58CB00B90002083
:101CA0000A9009900890079006900B98006843F2FC
:101CB0000001C4F2010188425ED1FFE7FFE743F66D
:101CC0002000C4F20200016841F480510160006804
:101CD00000F4805005900598FFE7FFE743F61C00ED
:101CE000C4F20200016841F001010160006800F0E7
:101CF000010004900498FFE7A020069002200790BE
:101D00000020029008900320099005200A900020EE
:101D1000C4F2020006A9FEF777FD029941F28C1089
:101D2000C2F20000039046F23002C4F202020260E6
:101D30001022426081608022C26001614161816144
:101D4000C161FEF783FC18B1FFE7FEF78DFBFFE7EB
:101D5000FFE70B9841F28C11C2F2000181640B98ED
:101D60004862FFE72320019005210022FEF7D2FF01
:101D70000198FEF7C5FFFFE70CB080BD80B588B0C5
:101D800006900591ADF81220039300208DF807000E
:101D9000FFE7069890F85000012804D1FFE70220E1
:101DA0008DF81F0028E10699012081F85000FFE717
:101DB000FFE7FEF703FF0290BDF81200ADF8040044
:101DC000069890F85100012804D0FFE702208DF812
:101DD000070002E1059820B1FFE7BDF8120020B925
:101DE000FFE701208DF80700F7E00699032081F84E
:101DF00051000699002048650599069A1163BDF8BF
:101E00001210069A9186BDF81210069AD18606998C
:101E10008863069988870699C88706994864069951
:101E2000086406988068B0F5004F0DD1FFE706986A
:101E30000168086820F0400008600698016808689A
:101E400040F480400860FFE706980068006800F0F2
:101E50004000402807D0FFE706980168086840F076
:101E600040000860FFE70698C068B0F5006F47D1F2
:101E7000FFE70698406828B1FFE7BDF80400012895
:101E80000ED1FFE706980168006B0088C8600699CC
:101E9000086B023008630699C88E0138C886FFE7D0
:101EA000FFE70698C08E50B3FFE706980068806889
:101EB000800700280ED5FFE706980168006B0088B0
:101EC000C8600699086B023008630699C88E01380D
:101ED000C88613E0FEF772FE0299401A0399884201
:101EE00004D3FFE70398013018B9FFE7039820B93E
:101EF000FFE703208DF807006FE0FFE7D1E746E03A
:101F00000698406828B1FFE7BDF8040001280ED10B
:101F1000FFE706980168006B007808730699086B64
:101F2000013008630699C88E0138C886FFE7FFE7CD
:101F30000698C08E50B3FFE7069800688068800757
:101F400000280ED5FFE706980168006B007808733B
:101F50000699086B013008630699C88E0138C88657
:101F600013E0FEF72BFE0299401A0399884204D32E
:101F7000FFE70398013018B9FFE7039820B9FFE79E
:101F800003208DF8070028E0FFE7D1E7FFE7069878
:101F90000399029A00F008FF20B1FFE7069920207C
:101FA0004865FFE70698806870B9FFE7FFE7002003
:101FB000009006980068C0680090069800688068E5
:101FC00000900098FFE7FFE70698406D20B1FFE71B
:101FD00001208DF80700FFE7FFE70699012081F84F
:101FE0005100FFE70699002081F85000FFE79DF8B7
:101FF00007008DF81F00FFE79DF81F0008B080BDA7
:1020000080B584B002900191ADF8022000208DF8D7
:102010000100FFE7029890F85000012804D1FFE783
:1020200002208DF80F009FE00299012081F85000F6
:10203000FFE7FFE7029890F85100012804D0FFE77E
:1020400002208DF8010084E0019820B1FFE7BDF87F
:10205000020020B9FFE701208DF8010079E0029924
:10206000032081F851000299002048650199029AE5
:102070001163BDF80210029A9186BDF80210029A0F
:10208000D18602998863029948640299086402998A
:1020900088870299C88702988068B0F5004F0DD1F3
:1020A000FFE702980168086820F040000860029885
:1020B0000168086840F480400860FFE70298816C7E
:1020C00042F6ED40C0F60000C8620298816C42F60C
:1020D0000550C0F6000088620298816C42F6B94053
:1020E000C0F6000008630298816C00204863029BE0
:1020F0001A68196B986C0C32DB8EFEF7FDFA60B132
:10210000FFE70299486D40F01000486501208DF806
:102110000100029981F851001BE0029800680068F4
:1021200000F04000402807D0FFE7029801680868E7
:1021300040F040000860FFE702980168486840F0FE
:102140002000486002980168486840F0020048603A
:10215000FFE7FFE70299002081F85000FFE79DF8B4
:1021600001008DF80F00FFE79DF80F0004B080BD5F
:1021700080B582B001900198006843F20001C4F27A
:102180000101884209D1FFE740F22C01C2F20001AF
:102190000120087001F0A4FEFFE702B080BD00003E
:1021A00081B0009001B0704780B582B00190019875
:1021B00001F0C0FE02B080BD85B003900291FFE740
:1021C000039890F83800012804D1FFE702208DF829
:1021D00013005BE00399012081F83800FFE7FFE777
:1021E0000399022081F83900039800684068019043
:1021F0000398006880680090019820F070000190BA
:1022000002980168019808430190019803990968B0
:10221000486003980068B0F1804F1BD0FFE7039837
:10222000006840F20041C4F20001884212D0FFE78A
:102230000398006840F60001C4F20001884209D00A
:10224000FFE70398006840F60001C4F201018842EC
:102250000ED1FFE7009820F08000009002984168BE
:102260000098084300900098039909688860FFE788
:102270000399012081F83900FFE70399002081F8D4
:102280003800FFE700208DF81300FFE79DF81300EA
:1022900005B0704780B582B00090009820B9FFE784
:1022A00001208DF8070030E0009890F8390040B91F
:1022B000FFE70099002081F83800009800F02AF824
:1022C000FFE70099022081F83900009951F8040BCA
:1022D00001F09EFE0099012081F83E00FFE7009981
:1022E000012081F83A00009981F83B00009981F8BB
:1022F0003C00009981F83D00FFE70099012081F83A
:10230000390000208DF80700FFE79DF8070002B0B4
:1023100080BD000082B001900198006840F2004149
:10232000C4F20001884210D1FFE7FFE743F6240022
:10233000C4F20200016841F002010160006800F08F
:10234000020000900098FFE7FFE702B0704700002E
:1023500080B586B004900391FFE7049890F83800A8
:10236000012804D1FFE702208DF81700A7E00499A7
:10237000012081F83800FFE7FFE70499022081F887
:1023800039000498006880680290029820F0770075
:102390000290029820F47F40029002980499096804
:1023A0008860039800680190002872D0FFE70198C8
:1023B00010286ED0FFE7019820286AD0FFE7019827
:1023C000302866D0FFE70198402855D0FFE70198F4
:1023D000502837D0FFE70198602840D0FFE70198E8
:1023E00070280BD0FFE70198B0F5805F05D0FFE7BC
:1023F0000198B0F5005F16D052E052E004980068F2
:10240000039B5A689968DB6801F092FE04980068A3
:1024100080680290029840F0770002900298049938
:10242000096888603DE004980068039B5A689968D1
:10243000DB6801F07DFE04980168886840F4804004
:1024400088602EE004980068039A5168D26801F011
:102450007DFF04980068502101F084FE21E004987B
:102460000068039A5168D26801F098FF04980068E8
:10247000602101F077FE14E004980068039A516827
:10248000D26801F063FF04980068402101F06AFE01
:1024900007E0049800680399096801F063FE00E012
:1024A000FFE70499012081F83900FFE70499002033
:1024B00081F83800FFE700208DF81700FFE79DF84E
:1024C000170006B080BD000080B588B007900020DE
:1024D000069005900490039002900798006840F2DF
:1024E0000041C4F2000188421ED1FFE7FFE743F636
:1024F0001C00C4F20200016841F0020101600068A2
:1025000000F0020001900198FFE702200290039082
:10251000002104910591069040F20040C4F20200AF
:1025200002A9FEF771F9FFE708B080BD80B586B05B
:10253000049003910292FFE7049890F83800012874
:1025400004D1FFE702208DF8170085E004990120EF
:1025500081F83800FFE7FFE7029801900C2800F2AD
:1025600070800199DFE801F0076D6D6D206D6D6D74
:102570003A6D6D6D530004980068039901F008FEF0
:1025800004980168886940F008008861049801682F
:10259000886920F0040088610398C2680498016883
:1025A0008869104388614DE004980068039901F040
:1025B00025FE04980168886940F4006088610498E9
:1025C0000168886920F4806088610398C268049873
:1025D0000168886940EA0220886133E00498006855
:1025E000039901F043FE04980168C86940F00800AF
:1025F000C86104980168C86920F00400C8610398A4
:10260000C26804980168C8691043C8611AE0049858
:102610000068039901F062FE04980168C86940F4FB
:102620000060C86104980168C86920F48060C861CE
:102630000398C26804980168C86940EA0220C8612A
:1026400000E0FFE7FFE70499002081F83800FFE78A
:1026500000208DF81700FFE79DF8170006B080BD39
:1026600080B582B00090009820B9FFE701208DF876
:10267000070030E0009890F8390040B9FFE7009972
:10268000002081F83800009800F02AF8FFE7009950
:10269000022081F83900009951F8040B01F0B8FCD0
:1026A0000099012081F83E00FFE70099012081F8A0
:1026B0003A00009981F83B00009981F83C000099AC
:1026C00081F83D00FFE70099012081F839000020E2
:1026D0008DF80700FFE79DF8070002B080BD0000FD
:1026E00081B0009001B0704780B58AB00890079122
:1026F000079828B9FFE7089890F83A0005901CE081
:102700000798042805D1FFE7089890F83B0004904B
:1027100010E00798082805D1FFE7089890F83C00DA
:10272000039004E0089890F83D000390FFE70398B9
:102730000490FFE704980590FFE70598012804D06E
:10274000FFE701208DF827006AE0079828B9FFE726
:102750000899022081F83A001EE00798042806D163
:10276000FFE70899022081F83B00029012E00798E9
:10277000082806D1FFE70899022081F83C00019063
:1027800005E00899022081F83D000190FFE70198DB
:102790000290FFE70298FFE7089800680799012276
:1027A00001F0AAFC08980068B0F1804F1BD0FFE749
:1027B0000898006840F20041C4F20001884212D03B
:1027C000FFE70898006840F60001C4F20001884263
:1027D00009D0FFE70898006840F60001C4F2010143
:1027E000884212D1FFE708980068806800F007006F
:1027F00006900698062807D0FFE708980168086841
:1028000040F001000860FFE706E0089801680868EA
:1028100040F001000860FFE700208DF82700FFE787
:102820009DF827000AB080BDFFE7FEE780B582B0C3
:10283000FFE743F61C00C4F20200016841F080711A
:102840000160006800F0807001900198FFE70D20A2
:10285000009000221146FEF75DFA0098FEF750FA4C
:1028600002B080BD80B592B00020119010900F9002
:102870000E900D90FFE743F61C00C4F202000168C1
:1028800041F004010160006800F004000C900C9815
:10289000FFE7FFE743F61C00C4F20200016841F0C5
:1028A00020010160006800F020000B900B98FFE70A
:1028B000FFE743F61C00C4F20200016841F0010189
:1028C0000160006800F001000A900A98FFE7FFE746
:1028D00043F61C00C4F20200016841F002010160ED
:1028E000006800F0020009900998FFE740F6000038
:1028F000C4F2020003904DF23D0100220692FEF761
:1029000045F9069A0020C4F2020004904421019186
:10291000FEF73CF9069A40F20040C4F2020007902C
:1029200040F20111FEF732F9039806994DF20D02BB
:102930000D92012205920E920F9110910DA908910E
:10294000FDF762FFDDF804C00498059B069A08991C
:10295000CDF834C00E930F921092FDF755FF0398F7
:10296000059B069A08994FF0300CCDF834C00E93B1
:102970000F92032202921092FDF746FF029ADDF8B1
:1029800014C0069B07980899CDF834C0CDF838C01C
:102990000F931092FDF738FF0398059A069B08994C
:1029A0004FF4706CCDF834C00E930F92FDF72CFFEE
:1029B0000498059A069B08994FF4004CCDF834C052
:1029C0000E930F92FDF720FF059B069A0798089932
:1029D0004FF4807CCDF834C00E930F921092FDF727
:1029E00013FF12B080BD000080B582B041F2D0105C
:1029F000C2F20000019043F20001C4F20101016043
:102A00004FF4827141604FF4004181600021C16048
:102A1000016141614FF4007282610822C26101626A
:102A2000416281620A21C162FFF7C0F818B1FFE775
:102A3000FDF71AFDFFE702B080BD000080B58CB045
:102A4000002101910B910A9109910891079106913A
:102A5000059104910391029141F22820C2F20000F5
:102A600040F20042C4F20002026041F63F7242604E
:102A700081600A22C2604FF4007202614161FFF777
:102A800009FC18B1FFE7FDF7EFFCFFE74FF48050BA
:102A9000089041F22820C2F2000008A9FFF758FC74
:102AA00018B1FFE7FDF7E0FCFFE741F22820C2F292
:102AB0000000FFF7D5FD18B1FFE7FDF7D5FCFFE7F4
:102AC00000200690079041F22820C2F2000006A9DB
:102AD000FFF772FB18B1FFE7FDF7C6FCFFE76020C8
:102AE0000290002003900490059041F22820C2F249
:102AF000000002A90C22FFF719FD18B1FFE7FDF74E
:102B0000B3FCFFE741F22820C2F20000FFF7DCFC33
:102B10000CB080BDFFE7FEE7FFE7FEE788B0079057
:102B200006910592079800F0070004900498C0F100
:102B30000700052803D3FFE70420019004E0049870
:102B4000C0F107000190FFE701980390049804305A
:102B5000062803D8FFE70020009003E0049803381C
:102B60000090FFE70098029006980399012202FA6C
:102B700001F101390840029B984005999A40013AB9
:102B80001140084308B070477047000085B00390BB
:102B90000020019043F60800C4F20200006810F023
:102BA000F00F40D1FFE743F62400C4F202000068B2
:102BB000C000002809D5FFE747F20000C4F200007A
:102BC000006800F4C05002901FE0FFE743F62400C5
:102BD000C4F20200016841F080510160006800F019
:102BE000805000900098FFE747F20000C4F2000018
:102BF000006800F4C050029043F62401C4F20201C0
:102C0000086820F080500860FFE70298B0F5C05FC8
:102C100008D1FFE70398B0F5404F03D1FFE701204B
:102C20000190FFE7FFE7FFE70198012809D1FFE7DF
:102C300043F60041C4F20201086840F00400086055
:102C4000FFE743F60041C4F20201086820F00100EA
:102C5000019A10430860FFE743F60040C4F2020007
:102C6000006800F001000199884204D0FFE70120CC
:102C70008DF8130003E000208DF81300FFE79DF8A6
:102C8000130005B07047000080B541F2D010C2F2C9
:102C90000000FEF78DFE80BD80B582B001900198E6
:102CA000406A009000990020C8870099C886009863
:102CB000FEF766FE02B080BD80B582B0019001983B
:102CC000406A009000980168486820F0030048605E
:102CD0000099486D40F0100048650099012081F886
:102CE00051000098FEF74CFE02B080BD80B582B066
:102CF00001900198406A00900098FFF751FA02B0E5
:102D000080BD000080B584B003900398406A0290B3
:102D1000FDF754FF019003980068006800F0200060
:102D200020283BD0FFE702980168486820F0200087
:102D3000486002980168486820F0020048600298E4
:102D4000019A642100F030F830B1FFE70299486D34
:102D500040F020004865FFE70298806870B9FFE7FF
:102D6000FFE70020009002980068C0680090029879
:102D70000068806800900098FFE7FFE70299002054
:102D8000C8860299012081F851000298406D20B157
:102D9000FFE70298FEF7F4FD04E0FFE70298FFF773
:102DA000E7F9FFE704B080BD80B586B004900391D9
:102DB000029240F21C00C2F2000000684AF6AB2109
:102DC000CAF6AA21A0FB011000094DF68361C4F2E6
:102DD0001B31A0FB0110800C4FF47A714843019025
:102DE00004984068B0F5827F15D1FFE70498039BF3
:102DF00002996A4611608021002200F027F848B14C
:102E0000FFE70499486D40F02000486503208DF8E5
:102E1000170017E012E0FFE7019808B9FFE70CE0A0
:102E2000019801380190FFE7049800688068C1B2FA
:102E30000020B0EBD11FEFD1FFE7FFE700208DF8B6
:102E40001700FFE79DF8170006B080BD80B58AB077
:102E5000DDF830C0089007918DF81B200593059888
:102E60000190FDF7ABFE024601980C99891A0844BF
:102E70000390FDF7A3FE0290039840F21C01C2F2FA
:102E800000010968C1F3CB3148430490FFE708987B
:102E90000068806807990840401AB0FA80F040093D
:102EA0009DF81B1088425ED0FFE70598013000288E
:102EB00058D0FFE7FDF782FE0299401A0399884235
:102EC00004D2FFE70398002842D1FFE70898016881
:102ED000486820F0E000486008984068B0F5827FBC
:102EE00013D1FFE708988068B0F5004F06D0FFE7E0
:102EF00008988068B0F5806F07D1FFE708980168EF
:102F0000086820F040000860FFE70898806AB0F584
:102F1000005F0FD1FFE7FFE708980168086820F419
:102F20000050086008980168086840F40050086084
:102F3000FFE7FFE70899012081F85100FFE70899B2
:102F4000002081F85000FFE703208DF827000EE0F5
:102F5000049818B9FFE700200390FFE704980138B0
:102F60000490FFE793E700208DF82700FFE79DF826
:102F700027000AB080BD000080B58AB084460C9856
:102F8000ADF826C0ADF82410ADF82220ADF8203001
:102F9000ADF81E00BDF92600BDF9221088422CD1E3
:102FA000FFE7BDF92000BDF92410884212DDFFE7DC
:102FB000BDF82600BDF82410BDF82020521A0132B9
:102FC000BDF81E30EC46CCF8003093B2012200F080
:102FD00041FC11E0BDF82600BDF82010BDF824200A
:102FE000521A0132BDF81E30EC46CCF8003093B2D4
:102FF000012200F02FFCFFE73DE1BDF92400BDF9FF
:10300000201088422CD1FFE7BDF92200BDF926101F
:10301000884212DDFFE7BDF82600BDF82410BDF898
:103020002220121A0132BDF81E30EC46CCF80030D6
:1030300092B2012300F00EFC11E0BDF82200BDF8B1
:103040002010BDF82620121A0132BDF81E30EC46C1
:10305000CCF8003092B2012300F0FCFBFFE70AE15C
:10306000BDF92000BDF92410884207DDFFE7BDF956
:103070002000BDF92410401A039006E0BDF9240099
:10308000BDF92010401A0390FFE703980290BDF9A4
:103090002200BDF92610884207DDFFE7BDF92200B6
:1030A000BDF92610401A019006E0BDF92600BDF9D1
:1030B0002210401A0190FFE70299019A00209142E4
:1030C000C8BF0120ADF81800BDF8180058B1FFE7DF
:1030D0000DF1260009A901F0EDF90DF1220008A972
:1030E00001F0E8F9FFE7BDF92600BDF9221088429A
:1030F0000BDDFFE70DF126000DF1220101F0DAF9F9
:1031000009A808A901F0D6F9FFE7BDF82200BDF82B
:103110002610401AADF81200BDF912004008ADF8B3
:103120001400BDF92400BDF9201088420BDAFFE736
:10313000BDF82000BDF82410401AADF810000120A1
:10314000ADF816000BE0BDF82400BDF82010401AC1
:10315000ADF810004FF6FF70ADF81600FFE7002045
:10316000ADF81C00BDF82600ADF81A00FFE7BDF968
:103170001A00BDF92210884252DCFFE7BDF81C009E
:103180000130ADF81C00BDF81010BDF81400401A55
:10319000ADF81400BDF91400B0F1FF3F39DCFFE7D2
:1031A000BDF8180078B1FFE7BDF82400BDF826107F
:1031B000BDF81C30BDF81E20EC46CCF800200122E2
:1031C00000F048FB0EE0BDF82600BDF82410BDF865
:1031D0001C20BDF81E30EC46CCF80030012300F076
:1031E00039FBFFE7BDF81610BDF824000844ADF820
:1031F00024000020ADF81C00BDF81A000130ADF825
:103200002600BDF81210BDF814000844ADF81400F3
:10321000FFE7FFE7BDF81A000130ADF81A00A6E796
:10322000BDF91C0038B3FFE7BDF8180088B1FFE70F
:10323000BDF82400BDF82610BDF81C20013ABDF8E9
:103240001E30EC46CCF8003093B2012200F002FBB5
:1032500010E0BDF82600BDF82410BDF81C20013A8E
:10326000BDF81E30EC46CCF8003092B2012300F0DD
:10327000F1FAFFE7FFE70AB080BD0000F0B593B0B8
:103280001C4613468C468646199E189D1C981B9911
:103290001A9A129611951094ADF83EE0ADF83CC024
:1032A0008DF83B308DF83A20ADF83810ADF8360087
:1032B00040F22800C2F20000006806909DF8440029
:1032C0008DF813009DF83A00022806D1FFE79DF81B
:1032D000130040008DF81300FFE700200890BDF8B0
:1032E00046009DF8481048430A90109A9DF83B000C
:1032F00020380A9900FB012005909DF848000146FE
:103300000291022808D0FFE70298032808D1FFE7BE
:103310004FF40000079006E04FF40040079002E0F1
:1033200080200790FFE7BDF83810080240EA11201E
:10333000ADF81000BDF83610080240EA1120ADF8D3
:103340000E0000200C90FFE70C980A9988426FD27B
:10335000FFE700200B909DF84800014601910228EC
:1033600010D0FFE70198032813D1FFE705980C9AC6
:103370008118805C00044A78897840EA0220084479
:103380000B900BE005980C99405A000400BA0B9082
:1033900004E005980C99405C0B90FFE70020099031
:1033A000FFE70998BDF8441088423AD2FFE70B982E
:1033B000099988400799084217D0FFE7BDF8100027
:1033C0000699089A531C089321F812009DF83A00B8
:1033D000022809D1FFE7BDF810000699089A531C8E
:1033E000089321F81200FFE716E0BDF80E000699D9
:1033F000089A531C089321F812009DF83A000228FD
:1034000009D1FFE7BDF80E000699089A531C0893EE
:1034100021F81200FFE7FFE7FFE709980130099064
:10342000BFE7FFE79DF848100C9808440C908BE725
:10343000BDF83E009DF8131001444A1EBDF83C1033
:10344000BDF846300B44013BD2B2DBB2C0B2C9B2C8
:1034500000F04EFB40F22800C2F20000009000682D
:103460000899490000F052FD00990B6840F28C1059
:10347000C2F2000040F68C12C2F20002834208BF82
:103480001046086013B0F0BDF0B58DB01C46134671
:103490008C468646139E129D16981599149A0C9682
:1034A0000B950A94ADF826E0ADF824C008938DF88A
:1034B0001F20ADF81C10ADF81A00BDF82C00ADF8B7
:1034C00018009DF81F00022806DBFFE7BDF8180072
:1034D0004000ADF81800FFE7FFE70898007840B318
:1034E000FFE7BDF82600BDF82410089A12789DF871
:1034F0001F50BDF81C60BDF81A700A9BDDF82CC087
:103500000C9CEE46CEF81070CEF80C60CEF8085049
:10351000CEF80440CEF800C0FFF7B0FEBDF818109A
:10352000BDF826000844ADF8260008980130089040
:10353000D3E70DB0F0BD000080B584B003900398D0
:10354000411C039100788DF80B00FFE79DF80B00FC
:10355000411E8DF80B10002845D0FFE70398411C51
:10356000039100788DF807009DF8070000F0C2FC79
:103570000398411C039100788DF80A009DF80A0019
:1035800000F08000ADF808009DF80A0000F07F0010
:103590008DF80A009DF80A0058B1FFE703989DF8DE
:1035A0000A1000F0B3FC9DF80A1003980844039039
:1035B000FFE7BDF80800A8B1FFE70398411C03919D
:1035C0000078ADF80800BDF80800FF2805D1FFE736
:1035D0004FF4FA70ADF80800FFE7BDF80800FDF7FA
:1035E000F1F8FFE7B2E704B080BD000080B584B019
:1035F000ADF80E00ADF80C10ADF80A20ADF80830AB
:10360000BDF90E20BDF90C00BDF90A30C11A1844ED
:10361000BDF80830EC46CCF8003009B203B21046D1
:10362000FFF7AAFCBDF90E00BDF90C10BDF90A2088
:10363000BDF80830EC46CCF804300023CCF800305C
:10364000032300F003F804B080BD000010B588B07B
:103650008C4686460B980A99ADF81EE0ADF81CC062
:10366000ADF81A208DF81930ADF81610ADF8140029
:10367000BDF81A00C0F10100ADF812000120ADF84C
:103680001000BDF81A100020A0EB4101ADF80E109B
:10369000ADF80C00BDF81A00ADF80A00BDF80C003A
:1036A000ADF80800BDF80A00ADF80600BDF8160038
:1036B0000130ADF81600FFE7BDF90C00BDF90A10A6
:1036C000884280F2C480FFE7BDF91200002812D4BE
:1036D000FFE7BDF80A000138ADF80A00BDF80E009A
:1036E0000230ADF80E00BDF80E10BDF8120008440F
:1036F000ADF81200FFE7BDF80C000130ADF80C008A
:10370000BDF810000230ADF81000BDF81010BDF883
:1037100012000844ADF81200BDF90C00BDF90A1002
:103720000131884242DAFFE79DF81900C007D8B19D
:10373000FFE7BDF81E00BDF80C104218BDF91C00D3
:10374000BDF90A30C11A1844BDF8163018440138C2
:10375000BDF81430EC46CCF8003009B212B203B216
:103760001046FFF709FCFFE79DF8190080070028C5
:103770001BD5FFE7BDF81E00BDF80C10421ABDF9BD
:103780001C00BDF90A30C11A1844BDF8163018449F
:103790000138BDF81430EC46CCF8003009B212B252
:1037A00003B21046FFF7E8FBFFE7FFE7BDF90A00A9
:1037B000BDF90610884245D0FFE79DF81900C00703
:1037C000D8B1FFE7BDF81E00BDF806104218BDF9DC
:1037D0001C00BDF90830C11A1844BDF81630184451
:1037E0000138BDF81430EC46CCF8003009B212B202
:1037F00003B21046FFF7C0FBFFE79DF81900C007B2
:10380000D8B1FFE7BDF81E00BDF80610421ABDF999
:103810001C00BDF90830C11A1844BDF81630184410
:103820000138BDF81430EC46CCF8003009B212B2C1
:1038300003B21046FFF7A0FBFFE7BDF80A00ADF8A2
:103840000600FFE7BDF80C00ADF8080034E708B04B
:1038500010BD000080B588B084460A98ADF81EC03F
:10386000ADF81C10ADF81A20ADF81830ADF8160000
:10387000BDF81E0040F28011C2F20001B1F9001043
:10388000884213DAFFE7BDF81C0040F27E11C2F255
:103890000001B1F90010884208DAFFE7BDF81A000C
:1038A00020B1FFE7BDF8180008B9FFE7C4E0BDF894
:1038B0001E00BDF81A1008440138ADF81200BDF81A
:1038C000120040F28011C2F20001B1F900108842EA
:1038D00008DDFFE740F28010C2F200000088ADF87A
:1038E0001200FFE7BDF81C00BDF8181008440138AD
:1038F000ADF81000BDF8100040F27E11C2F20001D8
:10390000B1F90010884208DDFFE740F27E10C2F2F4
:1039100000000088ADF81000FFE7BDF81610080A97
:1039200040EA012040EA01600290BDF81000BDF8B5
:103930001C10401A0130BDF81210BDF81E20891A63
:1039400001314843ADF80E0040F22800C2F20000F9
:1039500000680190BDF80E00B0F5806F08DAFFE74F
:10396000BDF80E10012000EB5100ADF80C0004E092
:103970004FF40070ADF80C00FFE70020ADF8140024
:10398000FFE7BDF81400BDF80C1088420CDAFFE721
:10399000029801990A1D01920860FFE7BDF8140022
:1039A0000130ADF81400ECE7BDF80E00800AADF868
:1039B0000C009DF81E009DF81C109DF812209DF82B
:1039C000103000F095F80020ADF81400FFE7BDF8C6
:1039D0001400BDF80C10884210DAFFE740F228000E
:1039E000C2F2000000684FF4006100F08FFAFFE7B8
:1039F000BDF814000130ADF81400E8E740F22800EB
:103A0000C2F2000000900068BDF80E104900BDF839
:103A10000C20A1EBC22100F079FA00990B6840F26A
:103A20008C10C2F2000040F68C12C2F200028342F7
:103A300008BF10460860FFE708B080BD80B582B0BF
:103A4000ADF8060040F28010C2F20000028840F299
:103A50007E10C2F200000388BDF8060069460860C7
:103A600000210846FFF7F6FE02B080BD80B582B0A7
:103A70008DF8070000F032F800F01AF845F6F970FA
:103A8000C0F60000FFF758FD46F23400C0F6000013
:103A9000FFF752FD46F24100C0F60000FFF74CFD73
:103AA00000F01EFA9DF8070000F010F902B080BD8A
:103AB00080B582B040F60000C4F2020000901021F0
:103AC00001910022FDF762F80520FCF77BFE0098CB
:103AD00001990122FDF75AF802B080BD80B540F28D
:103AE0000040C4F2020001210022FDF74FF880BD22
:103AF00080B584B08DF80F008DF80E108DF80D2074
:103B00008DF80C302A2000F0F5F900208DF808001F
:103B10009DF80F2040F22501C2F200010B781A44F3
:103B20008DF809208DF80A009DF80D0009780844E9
:103B30008DF80B0002A800900421019100F0E6F935
:103B40002B2000F0D7F9009801999DF80E2040F243
:103B50002603C2F2000393F800C062448DF80920E6
:103B60009DF80C201B781A448DF80B2000F0CEF93C
:103B70002C2000F0BFF904B080BD000080B582B0F9
:103B80008DF807009DF807002B38014600912C287E
:103B900000F293800099DFE801F049906A9090224A
:103BA000179090909090909090909090909090908E
:103BB000909090909017909081909090909090908D
:103BC0008F9034909090290040F22C40C4F2000075
:103BD000006840F24041C4F2000108606EE040F22B
:103BE0004041C4F200010020086067E040F27C1010
:103BF000C2F20000008840F24041C4F200010860B7
:103C00005CE040F24040C4F20000016840F27C12E7
:103C1000C2F200021180006838B1FFE740F2404173
:103C2000C4F2000101200860FFE747E040F22C40A9
:103C3000C4F20000006840F24041C4F2000109688B
:103C4000884208D9FFE740F24041C4F20001086809
:103C5000013008600AE040F22C40C4F20000006825
:103C600040F24041C4F200010860FFE726E040F264
:103C70004040C4F20000006840B1FFE740F240411C
:103C8000C4F2000108680138086006E040F24041D3
:103C9000C4F2000100200860FFE70FE041F2282095
:103CA000C2F200000C21FEF71FFD40F24041C4F2B9
:103CB00000010520086001E000E0FFE740F240401D
:103CC000C4F20000006802B080BD000080B588B07A
:103CD0008DF81F00362000F00DF99DF81F1040F2FE
:103CE0002400C2F20000017000780146059103280B
:103CF00000F2A8800599DFE801F0022C567B40F223
:103D00002001C2F2000108784A78C97810430843BC
:103D10008DF81E000DF11E000121049100F0F6F84F
:103D2000049840F28012C2F200028021118040F219
:103D30007E12C2F20002A021118040F22502C2F2DE
:103D400000020221117040F22601C2F20001087047
:103D500078E040F22001C2F2000148788A78C97800
:103D6000104308438DF81D000DF11D000121039142
:103D700000F0CCF8039840F28012C2F20002A021B9
:103D8000118040F27E12C2F200028021118040F2C6
:103D90002501C2F20001087040F22601C2F20001C2
:103DA000022008704EE040F22000C2F20000C0780D
:103DB0008DF81C0007A80121029100F0A7F80298D5
:103DC00040F28012C2F200028021118040F27E1285
:103DD000C2F20002A021118040F22502C2F20002CC
:103DE0000221117040F22601C2F20001087029E0A0
:103DF00040F22001C2F2000108788A78C9781043A5
:103E000008438DF81B000DF11B000121019100F00A
:103E10007DF8019840F28012C2F20002A0211180C8
:103E200040F27E12C2F200028021118040F2250190
:103E3000C2F20001087040F22601C2F20001022025
:103E40000870FFE708B080BD80B584B08DF80F0022
:103E50000291ADF80620FFE740F22C00C2F200000C
:103E60000078C00708B9FFE7F6E7FFF737FE9DF8CF
:103E70000F2040F60000C4F202002021FCF786FE6D
:103E8000BDF80600132818DCFFE740F22C01C2F24F
:103E900000010091002008700299BDF8062041F24F
:103EA000D010C2F200004FF0FF33FDF767FF00991A
:103EB0000120087000F014F80FE040F22C01C2F26B
:103EC0000001002008700299BDF8062041F2D010D0
:103ED000C2F20000FEF794F8FFE704B080BD0000D6
:103EE00080B540F20040C4F2020001221146FCF706
:103EF0004DFE80BD80B582B08DF8070000200DF129
:103F000007010122FFF7A0FF02B080BD80B582B09B
:103F100001900091009808B9FFE706E00199BDF80B
:103F200000200120FFF790FFFFE702B080BD0000F6
:103F30007047000080B582B0009000980138B0F161
:103F4000807F03D3FFE70120019019E0009801383A
:103F50004EF21401CEF2000108604FF0FF300F2145
:103F600000F068FA4EF21801CEF20001002008605D
:103F70004EF21002CEF20002072111600190FFE71D
:103F8000019802B080BD000080B5FCF71DFE80BD29
:103F900080B594B007A801903421FCF7CBF90198C3
:103FA00000210691059104910391029147F20003CB
:103FB000C4F200031A68012161F3CC221A60079150
:103FC0000891022110914FF4803111914FF440215A
:103FD00012914FF480011391FDF7D4F818B1FFE767
:103FE000FCF742FAFFE70F20029003200390002025
:103FF00004900590069002A80121FCF7ADFE18B1CF
:10400000FFE7FCF731FAFFE714B080BD704700000E
:1040100083B0029001910298006800900298B0F17C
:10402000804F10D0FFE7029840F20041C4F2000137
:10403000884208D0FFE7029840F60001C4F2000170
:1040400088420AD1FFE7009820F0700000900198A4
:104050004168009808430090FFE70298B0F1804F54
:1040600028D0FFE7029840F20041C4F200018842E4
:1040700020D0FFE7029840F60001C4F20001884218
:1040800018D0FFE7029840F60001C4F2010188420F
:1040900010D0FFE7029840F60041C4F201018842C7
:1040A00008D0FFE7029841F20001C4F20101884202
:1040B0000AD1FFE7009820F4407000900198C16891
:1040C000009808430090FFE7009820F080000199D5
:1040D0000969084300900098029908600198806877
:1040E0000299C862019800680299886202990120C9
:1040F000486103B07047000084B0039002910192C0
:10410000029800F01F01012088400090009A039956
:10411000086A904308620198029901F01F0100FAB1
:1041200001F20399086A1043086204B07047000066
:1041300085B00490039102920193049880680090E6
:10414000009820F47F40009003980299019A41EA78
:104150000221014300980843009000980499886068
:1041600005B0704783B0029001910298806800907A
:10417000009820F07000009001980099084340F0EA
:104180000700009000980299886003B07047000013
:1041900085B0049003910499086A20F00100086238
:1041A0000498006A0190049840680090049880691F
:1041B0000290029820F070000290029820F0030014
:1041C000029003980168029808430290019820F039
:1041D00002000190039881680198084301900098BB
:1041E000049948600298049988610398406804998A
:1041F000486301980499086205B0704785B004903F
:1042000003910499086A20F0100008620498006A7B
:104210000190049840680090049880690290029888
:1042200020F4E0400290029820F44070029003983D
:104230000168029840EA01200290019820F02000D5
:10424000019003988168019840EA0110019000985C
:104250000499486002980499886103984068049919
:10426000886301980499086205B0704785B004908E
:1042700003910499086A20F4807008620498006A27
:1042800001900498406800900498C06902900298D8
:1042900020F070000290029820F003000290039832
:1042A0000168029808430290019820F40070019080
:1042B00003988168019840EA0120019000980499D0
:1042C000486002980499C861039840680499C863DB
:1042D00001980499086205B07047000085B0049009
:1042E00003910499086A20F4805008620498006AD7
:1042F00001900498406800900498C0690290029868
:1043000020F4E0400290029820F44070029003985C
:104310000168029840EA01200290019820F40050C0
:10432000019003988168019840EA0130019000985B
:104330000499486002980499C861039840680499F8
:10434000086401980499086205B0704785B004902C
:10435000039102920498006A00900499086A20F080
:1043600001000862049880690190019820F0F00033
:1043700001900299019840EA01100190009820F004
:104380000A0000900399009808430090019804994E
:10439000886100980499086205B0704785B0049060
:1043A000039102920499086A20F0100008620498B0
:1043B000806901900498006A0090019820F4704090
:1043C00001900299019840EA01300190009820F094
:1043D000A00000900399009840EA01100090019815
:1043E0000499886100980499086205B0704700003C
:1043F000FFE7FEE781B08DF803009DF90300002878
:104400000ED4FFE79DF9031001F01F020120904038
:104410004A094EF20011CEF2000141F82200FFE7F6
:1044200001B070474EF60C50CEF200000068C0F3A9
:104430000220704782B08DF8070000919DF90700B7
:1044400000280AD4FFE7009800019DF907104EF2FA
:104450000042CEF2000288540BE0009800019DF863
:10446000071001F00F014EF61452CEF200028854EC
:10447000FFE702B07047000083B00290029800F09E
:10448000070000904EF60C51CEF200010868019032
:1044900001984FF6FF02104001900198009A40EAFF
:1044A00002200022C0F2FA521043019001980860E5
:1044B00003B0704783B00290019102980088ADF874
:1044C00002000198008802990880BDF80200019955
:1044D000088003B07047000080B586B069464FF68B
:1044E000FF70039008609F220292002304931846F5
:1044F0001946FEF741FD0398049A6946086078233F
:10450000059310461146FEF737FD029A0399049869
:10451000059BEC46CCF800101946FEF72DFD029ADB
:104520000398049B0599EC46CCF800001046FEF772
:1045300023FD03980499059B6A461060502210469B
:10454000FEF71AFD06B080BD80B58AB00990002044
:10455000FFF774FAFFE769464FF6FF7005900860B1
:104560009F2207920023089318461946FEF704FD80
:104570000598089A69460860782306931046114604
:10458000FEF7FAFC0599069B079A0898EC46CCF8CA
:1045900000101946FEF7F0FC05980699079A089B4B
:1045A000EC46CCF800001046FEF7E6FC099801281E
:1045B0001FD1FFE740F20C01C2F200010B6848680E
:1045C0008A6869464FF0000CC1F810C04FF4784C6F
:1045D000C1F80CC04FF0010CC1F808C04A60086077
:1045E00046F27C02C0F6000223203221FEF74CFF87
:1045F000FFE7099802281FD1FFE740F20C01C2F241
:1046000000010B6848688A6869464FF0000CC1F8E1
:1046100010C04FF4FC6CC1F80CC04FF0010CC1F895
:1046200008C04A60086046F28402C0F600022320F7
:104630003221FEF729FFFFE78DE7000070B592B049
:1046400000200E901190FCF7CDFAFFF7A1FCFEF7C9
:1046500009F9FEF7EBF8FEF7C7F9FEF7EFF90E9A46
:1046600040F28211C2F200010C910A704A700A7184
:104670004A718A70CA700320887141F26821C2F2BF
:1046800000018A700A2008704020487040F28911A9
:10469000C2F200018A7096220A7048700020C4F2AB
:1046A0000200042101220D92FCF770FA0D98FFF729
:1046B000DDF94620FFF762FA0E98FFF7BFF90E9872
:1046C000A02100F0D5FA0C9A01460E9811708021B5
:1046D00000F0CEFA0C9A0D9903460E985370917023
:1046E000D1700F218DF843108DF842008DF84100F4
:1046F0008DF840008DF83F00FCF760FAFBF7FCFDF9
:104700000E9A40F60000C4F202004FF48041FCF71C
:104710003DFAFFE740F60000C4F202004FF480616A
:10472000FCF71CFAB0FA80F040098DF84000002038
:10473000C4F202004FF40041FCF710FAB0FA80F026
:1047400040098DF83F009DF84100C00700283ED089
:10475000FFE740F28212C2F200020B921078517809
:1047600092790023FEF742FF0B99502008704020F9
:104770004870FFE74FF0FF30022100F079FA40F275
:104780008211C2F200018870FFE740F28210C2F28B
:10479000000090F902000028ECD0FFE7FFE74FF09F
:1047A000FF30022100F064FA40F28211C2F20001EF
:1047B000C870FFE740F28210C2F2000090F90300D7
:1047C0000028ECD0FFE700208DF84100FFE740F221
:1047D0001800C2F200000078C007002800F04682EE
:1047E000FFE79DF8420001308DF8420040F20001E1
:1047F000C2F2000109910B6848688A686946002680
:104800000E614FF6FF75CD6001248C604A60086030
:1048100046F26C02C0F600020A210A910846FEF731
:1048200033FEDDF824C00A9941F26820C2F200008C
:1048300080783030DCF80030DCF80420DCF808E068
:10484000EC46CCF81060CCF80C50CCF80840CCF812
:1048500004E0CCF80020C2B24620FEF70FFD099A12
:104860000A9913685068D2F808C06A461661D56084
:104870009460C2F804C0106046F27602C0F60002EE
:104880005A20FEF701FEDDF824C00A9940F2891093
:10489000C2F2000080783030DCF80030DCF8042010
:1048A000DCF808E0EC46CCF81060CCF80C50CCF802
:1048B0000840CCF804E0CCF80020C2B29620FEF705
:1048C000DDFC40F28210C2F20000017882781144CF
:1048D00001714178C27811444171007998B9FFE7BC
:1048E00040F28910C2F20000817801318170807835
:1048F000082804D1FFE70120FFF726FEFFE701208B
:104900008DF841001BE040F28210C2F200000079F5
:10491000A02813D1FFE741F26820C2F2000081789D
:10492000013181708078082804D1FFE70220FFF769
:104930000BFEFFE701208DF84100FFE7FFE740F2A3
:104940008210C2F20000407940B1FFE740F28210CD
:10495000C2F20000407978280DD1FFE740F28211C1
:10496000C2F20001C8784042C870CA78487900EBAA
:1049700042004871FFE740F28210C2F20000007965
:1049800041F26821C2F20001097888422DD1FFE787
:1049900040F28210C2F20000407941F26821C2F276
:1049A000000149789DF84320891A88421DDBFFE702
:1049B00040F28210C2F20000407941F26821C2F256
:1049C000000149789DF84320114488420DDCFFE73F
:1049D00040F28211C2F200018878404288708A78E1
:1049E000087900EB42000871FFE740F28210C2F242
:1049F0000000007940F28911C2F200010978884272
:104A00002DD1FFE740F28210C2F20000407940F25F
:104A10008911C2F2000149789DF84320891A884221
:104A20001DDBFFE740F28210C2F20000407940F245
:104A30008911C2F2000149789DF84320114488424F
:104A40000DDCFFE740F28211C2F20001887840429B
:104A500088708A78087900EB42000871FFE740F21D
:104A60008212C2F2000207921078517892790023E4
:104A70000893FEF7BBFD079A1079517992794FF4AC
:104A80007843FEF7B3FD07990879087048794870B4
:104A9000FFF722FD089841F26821C2F200010A786E
:104AA0004B789DF843C0A3EB0C016344EC46CCF873
:104AB00000001046FEF760FA9DF83F00C00758B1AD
:104AC000FFE741F26821C2F20001487801304870E6
:104AD00000208DF8400010E09DF84000C00758B15C
:104AE000FFE741F26821C2F20001487801384870BE
:104AF00000208DF83F00FFE7FFE741F26820C2F297
:104B0000000040789DF84310401A002809DCFFE7B8
:104B10009DF84300013041F26821C2F20001487063
:104B2000FFE741F26820C2F2000040789DF8431090
:104B3000084479280ADBFFE79DF84300C0F17800BC
:104B400041F26821C2F200014870FFE741F268209B
:104B5000C2F20000027840789DF84330C11A034445
:104B6000EC464FF4FC60CCF800001046FEF704FA67
:104B70009DF84200022878DBFFE740F28910C2F27C
:104B800000000690027840789DF84330C11A034433
:104B9000EC460020CCF800001046FEF7EDF9069830
:104BA000407840F28211C2F200014978884208DD63
:104BB000FFE740F28911C2F20001487801384870DD
:104BC000FFE740F28910C2F20000407840F2821103
:104BD000C2F200014978884208DAFFE740F2891101
:104BE000C2F20001487801304870FFE740F28910B6
:104BF000C2F2000040789DF84310401A002809DCFA
:104C0000FFE79DF84300013040F28911C2F2000134
:104C10004870FFE740F28910C2F2000040789DF82A
:104C20004310084479280ADBFFE79DF84300C0F1F0
:104C3000780040F28911C2F200014870FFE740F2AB
:104C40008910C2F20000027840789DF84330C11A02
:104C50000344EC464FF6E070CCF800001046FEF737
:104C60008BF900208DF84200FFE7FFE752E50000D6
:104C700080B582B001900091FBF78CFA0346009852
:104C80000199401A421C93FBF2F000FB12300844D9
:104C900002B080BD0000000000000000010203041B
:104CA00006070809000000000000000000000000E6
:104CB000001010101010000010000000006C484898
:104CC0000000000000000000001414287C287C284C
:104CD000505000000010384040384870101000005C
:104CE000002050200C70081408000000000000187C
:104CF0002020544834000000001010101000000064
:104D00000000000000080810101010101008080023
:104D100000202010101010101020200000107C1017
:104D200028280000000000000000101010FE1010E5
:104D300010000000000000000000001810302000EB
:104D400000000000007C00000000000000000000E7
:104D5000000000303000000000040408081010209B
:104D600020400000003844444444444438000000DB
:104D700000301010101010107C00000000384404A7
:104D8000081020447C000000003844041804044447
:104D900038000000000C141424447E040E000000AF
:104DA000003C20203804044438000000001C20404F
:104DB0007844444438000000007C4404080808108B
:104DC00010000000003844443844444438000000D7
:104DD00000384444443C04087000000000000030E7
:104DE00030000030300000000000001818000018EB
:104DF0003020000000000C10608060100C000000EB
:104E0000000000007C007C00000000000000C020CA
:104E100018041820C0000000000018240408100026
:104E2000300000003844444C54544C404438000096
:104E30000030102828287C44EE00000000F844448C
:104E400078444444F8000000003C44404040404462
:104E50003800000000F0484444444448F00000009A
:104E600000FC445070504044FC000000007E2228AA
:104E70003828202070000000003C4440404E44444C
:104E80003800000000EE44447C444444EE0000003E
:104E9000007C1010101010107C000000003C08086E
:104EA000084848483000000000EE4448507048442C
:104EB000E600000000702020202024247C00000058
:104EC00000EE6C6C54544444EE00000000EE646448
:104ED0005454544CEC0000000038444444444444CE
:104EE00038000000007824242438202070000000BE
:104EF0000038444444444444381C000000F844440E
:104F000044784844E200000000344C403804046413
:104F10005800000000FE9210101010103800000021
:104F200000EE4444444444443800000000EE44444D
:104F3000282828101000000000EE44445454545413
:104F40002800000000C6442810102844C6000000B5
:104F500000EE44282810101038000000007C44089F
:104F6000101020447C000000003820202020202049
:104F700020203800004020202010100808080000E1
:104F80000038080808080808080838000010102829
:104F900044000000000000000000000000000000CD
:104FA000000000FE001008000000000000000000EB
:104FB00000000038443C44443E00000000C040581B
:104FC00064444444F80000000000003C4440404475
:104FD00038000000000C04344C4444443E000000FF
:104FE00000000038447C40403C000000001C207C55
:104FF000202020207C000000000000364C44444467
:105000003C04380000C0405864444444EE000000B2
:1050100000100070101010107C00000000100078CC
:10502000080808080808700000C0405C4870504834
:10503000DC00000000301010101010107C00000088
:10504000000000E854545454FE000000000000D852
:1050500064444444EE0000000000003844444444EA
:1050600038000000000000D8644444447840E00068
:10507000000000364C4444443C040E000000006C28
:10508000302020207C0000000000003C4438044414
:10509000780000000000207C202020221C0000005E
:1050A000000000CC4444444C36000000000000EEF8
:1050B0004444282810000000000000EE44545454DA
:1050C00028000000000000CC48303048CC00000030
:1050D000000000EE44242818101078000000007C26
:1050E000481020447C000000000810101010201010
:1050F00010100800001010101010101010100000F8
:1051000000201010101008101010200000000000E7
:105110000024580000000000000000000000000013
:10512000000000000000000000000000000000007F
:10513000000000000000000000000000000000006F
:10514000000007000700070007000700070007002E
:10515000020002000000000007000700000000003D
:105160000000000000000000000000001CE01CE047
:105170001CE008400840084000000000000000005B
:10518000000000000000000000000000000000001F
:105190000CC00CC00CC00CC00CC03FF03FF00CC0E9
:1051A0000CC03FF03FF00CC00CC00CC00CC00CC0D9
:1051B00000000000000000000300030007E00FE013
:1051C000186018001F000FC000E0186018601FC0B2
:1051D0001F80030003000300000000000000000027
:1051E00000001C002200220022001C6001E00F8051
:1051F0003C0031C002200220022001C0000000005B
:10520000000000000000000000000000000003E0BB
:105210000FE00C000C0006000F301FF019E018C062
:105220001FF007B0000000000000000000000000B8
:1052300000000000038003800380010001000100E2
:10524000000000000000000000000000000000005E
:105250000000000000000000000000C000C001804D
:10526000018001800300030003000300030003002A
:1052700001800180018000C000C00000000000002B
:1052800000000C000C0006000600060003000300EE
:1052900003000300030003000600060006000C00E4
:1052A0000C000000000000000000030003000300E9
:1052B0001B601FE0078007800FC00CC000000000CB
:1052C00000000000000000000000000000000000DE
:1052D00000000000000003000300030003003FF093
:1052E0003FF0030003000300030000000000000083
:1052F00000000000000000000000000000000000AE
:10530000000000000000000000000000000003801A
:105310000300030006000600040000000000000077
:1053200000000000000000000000000000003FE05E
:105330003FE000000000000000000000000000004E
:10534000000000000000000000000000000000005D
:1053500000000000000000000000000000000380CA
:105360000380038000000000000000000000000037
:105370000060006000C000C000C001800180030028
:105380000300060006000C000C000C0018001800BA
:10539000000000000000000000000F801FC018C0C7
:1053A000306030603060306030603060306018C035
:1053B0001FC00F800000000000000000000000007F
:1053C000000003001F001F00030003000300030090
:1053D00003000300030003001FE01FE000000000C3
:1053E000000000000000000000000F801FC038E037
:1053F0003060006000C00180030006000C0018004F
:105400003FE03FE00000000000000000000000005E
:1054100000000F803FC030E0006000E007C007C020
:1054200000E00060006060E07FC03F80000000009E
:105430000000000000000000000001C003C003C025
:1054400006C00CC00CC018C030C03FE03FE000C038
:1054500003E003E000000000000000000000000086
:1054600000001FC01FC0180018001F801FC018E0D8
:1054700000600060006030E03FC01F80000000005E
:105480000000000000000000000003E00FE01E002C
:105490001800380037803FC038E03060306018E0D6
:1054A0001FC0078000000000000000000000000096
:1054B00000003FE03FE03060006000C000C000C07E
:1054C0000180018001800300030003000000000050
:1054D000000000000000000000000F801FC038E046
:1054E000306038E01FC01FC038E03060306038E006
:1054F0001FC00F800000000000000000000000003E
:1055000000000F001FC038C03060306038E01FE07E
:105510000F6000E000C003C03F803E0000000000BC
:10552000000000000000000000000000000000007B
:10553000000003800380038000000000000003805F
:105540000380038000000000000000000000000055
:105550000000000000000000000001C001C001C008
:1055600000000000000003800300060006000400A5
:1055700000000000000000000000000000000030FB
:1055800000F003C007001C0078001C00070003C0E7
:1055900000F00030000000000000000000000000EB
:1055A000000000000000000000007FF07FF000001D
:1055B00000007FF07FF0000000000000000000000D
:1055C00000000000000000000000000000003000AB
:1055D0003C000F00038000E0007800E003800F0033
:1055E0003C0030000000000000000000000000004F
:1055F000000000000F801FC018601860006001C02C
:105600000380030000000000070007000000000006
:105610000000000000000000000003800C80084033
:105620001040104011C012401240124011C0100032
:105630000800084007800000000000000000000093
:10564000000000001F801F80038006C006C00CC041
:105650000C601FE01FE030307878787800000000A0
:105660000000000000000000000000003F803FC07C
:105670001860186018E01FC01FE01870183018304C
:105680003FF03FE0000000000000000000000000CC
:105690000000000007B00FF01C7038303000300000
:1056A0003000300038301C700FE007C000000000F0
:1056B0000000000000000000000000007F807FC0AC
:1056C00030E030703030303030303030307030E0FA
:1056D0007FC07F800000000000000000000000008C
:1056E000000000003FF03FF01830183019801F8094
:1056F0001F801980183018303FF03FF00000000084
:105700000000000000000000000000003FF03FF03B
:105710001830183019801F801F8019801800180059
:105720003F003F00000000000000000000000000FB
:105730000000000007B01FF018703030300030005B
:1057400031F831F8303018301FF007C00000000089
:105750000000000000000000000000003CF03CF0F1
:105760001860186018601FE01FE01860186018606B
:105770003CF03CF0000000000000000000000000D1
:10578000000000001FE01FE003000300030003000F
:1057900003000300030003001FE01FE000000000FF
:1057A00000000000000000000000000003F803F803
:1057B000006000600060006030603060306030E0A9
:1057C0003FC00F800000000000000000000000004B
:1057D000000000003EF83EF818E019801B001F0092
:1057E0001D8018C018C018603E783E3800000000C8
:1057F0000000000000000000000000003F003F002B
:105800000C000C000C000C000C000C300C300C30A8
:105810003FF03FF00000000000000000000000002A
:10582000000000007878787838703CF034B037B0F9
:1058300037B03330333030307CF87CF80000000073
:1058400000000000000000000000000039F03DF002
:105850001C601E601E601B601B6019E019E018E0F0
:105860003EE03E600000000000000000000000007C
:105870000000000007800FC01CE03870303030306E
:105880003030303038701CE00FC00780000000005E
:105890000000000000000000000000003FC03FE0EA
:1058A00018701830183018701FE01FC0180018004A
:1058B0003F003F000000000000000000000000006A
:1058C0000000000007800FC01CE03870303030301E
:1058D0003030303038701CE00FC0078007B00FF058
:1058E0000CE0000000000000000000003FC03FE0AE
:1058F0001870183018701FE01FC018E0186018707A
:105900003E383E18000000000000000000000000CB
:10591000000000000FB01FF03870303038001F80DA
:1059200007E00070303038703FE037C00000000002
:105930000000000000000000000000003FF03FF009
:10594000333033303330030003000300030003001F
:105950000FC00FC0000000000000000000000000A9
:10596000000000003CF03CF01860186018601860FF
:105970001860186018601CE00FC00780000000006D
:1059800000000000000000000000000078F078F047
:105990003060306018C018C00D800D800D80070089
:1059A00007000700000000000000000000000000E9
:1059B000000000007C7C7C7C30183398339833984E
:1059C00036D816D01C701C701C70183000000000F7
:1059D00000000000000000000000000078F078F0F7
:1059E000306018C00D80070007000D8018C03060BF
:1059F00078F078F0000000000000000000000000D7
:105A0000000000003CF03CF018600CC007800780EC
:105A100003000300030003000FC00FC000000000DC
:105A20000000000000000000000000001FE01FE078
:105A3000186018C001800300030006000C601860A5
:105A40001FE01FE000000000000000000000000058
:105A5000000003C003C003000300030003000300B1
:105A6000030003000300030003000300030003C05E
:105A700003C0000000000000180018000C000C001B
:105A80000C0006000600030003000180018000C036
:105A900000C000C0006000600000000000000000C6
:105AA00000000F000F0003000300030003000300C9
:105AB00003000300030003000300030003000F00C2
:105AC0000F000000000000000000020007000D8031
:105AD00018C030602020000000000000000000001E
